:020000023000CC
:10F800000D9472FC0D949BFC0D949BFC0D949BFC41
:10F810000D949BFC0D949BFC0D949BFC0D949BFC08
:10F820000D949BFC0D949BFC0D949BFC0D949BFCF8
:10F830000D949BFC0D949BFC0D949BFC0D949BFCE8
:10F840000D949BFC0D949BFC0D949BFC0D949BFCD8
:10F850000D949BFC0D949BFC0D949BFC0D949BFCC8
:10F860000D949BFC0D949BFC0D949BFC0D949BFCB8
:10F870000D949BFC0D949BFC0D949BFC0D949BFCA8
:10F880000D949BFC0D949BFC0D949BFC0D949BFC98
:10F890000D949BFC0D949BFC0D949BFC0D949BFC88
:10F8A0000D949BFC0D949BFC0D949BFC0D949BFC78
:10F8B0000D949BFC0D949BFC0D949BFC0D949BFC68
:10F8C0000D949BFC0D949BFC0D949BFC0D949BFC58
:10F8D0000D949BFC0D949BFC0D949BFC0D949BFC48
:10F8E0000D949BFC11241FBECFEFD1E2DEBFCDBF34
:10F8F00001E00CBF12E0A0E0B2E0E6E9FDEF03E0BA
:10F900000BBF02C007900D92A430B107D9F722E0D7
:10F91000A4E0B2E001C01D92A530B207E1F70F9458
:10F9200012FD0D94C9FE01E20EBF0FEF0DBF1124B1
:10F930001FBE0D9412FD0D9400FC8093C6008091B3
:10F94000C00086FFFCCF8091C00080648093C0001F
:10F9500008958059833030F4E82FF0E0E050FE4FF6
:10F960008081089580E00895CF93DF93FC0180E0CB
:10F9700070E060E050E040E090E08730A1F4DF917B
:10F98000CF910895853071F18630D1F18430A9F797
:10F990002E30C9F5922785E050E040E004C0209366
:10F9A0000402922782E02091C00027FFFCCF209123
:10F9B000C600833099F030F7813089F3823039F016
:10F9C0008111DBCF2B3179F79BE181E0ECCF622F06
:10F9D00070E0762F6627922783E0E5CF622B92278F
:10F9E00084E0E1CFDA0111964E0F5F1FEA01288310
:10F9F0009227AD016A177B07B1F6AB0186E0D3CF42
:10FA0000921709F4BCCF80E0CECF80E090E0DC011B
:10FA1000ABBFFC0187919691019619F0EE27FF2765
:10FA200009940895CDB7DEB7C152D1400FB6F8940E
:10FA3000DEBF0FBECDBF94B7F894A89514BE8091D9
:10FA40006000886180936000109260007894292E95
:10FA500093FD0F9405FD8091C00082608093C000EB
:10FA600088E08093C40088E18093C100000080E2B8
:10FA700091EAA7E0B0E02091C00027FD13C00197F4
:10FA8000A109B10969F400008091C0008D7F8093C5
:10FA9000C00081E180935700E8950F9405FDFFCFEA
:10FAA0000000E9CF412C512C3201C12CD12C760120
:10FAB000B9E03B2ECE0101960F94B4FC89818231CE
:10FAC00009F403C108F042C0863009F406C160F4AD
:10FAD000823009F418C1833009F4C8C0813009F4B8
:10FAE000AEC0F0ECFA83F6C0803109F40CC181316C
:10FAF000C1F71A8202E010E0992493948BE10F94ED
:10FB00009DFC809104020F949DFC80900402812F43
:10FB10000F949DFC8126802F0F949DFC80268EE003
:10FB20000F949DFC85E1882681E090E08C0F9D1F5D
:10FB3000080F191F5C010A151B0509F01BC1882D50
:10FB40000F949DFC992009F4B5CF9DCF8A3109F41B
:10FB5000A1C008F05AC0843109F4D7C0883109F433
:10FB6000A4C0833109F0BDCF8A819B819827892762
:10FB700098274114A0EF5A06A3E06A06710470F4B6
:10FB800023E0F20160925B0020935700E89507B6EE
:10FB900000FCFDCFBFEF5B1A6B0A7B0ADE011196FA
:10FBA000B701A60111E01A96EC911A971B962C91B9
:10FBB0001B9730E0322F22272E0F311D0901FA0149
:10FBC00060935B0010935700E89511244E5F5F4FE0
:10FBD0006F4F7F4F02971296009729F785E0F60145
:10FBE000E0925B0080935700E89587B7E82FE170BB
:10FBF0009E2E80FDFACF81E180935700E8951A820E
:10FC00006A017B0102E010E079CF8B31B9F18D31CF
:10FC100009F067CF9D81903309F096C08F818823CA
:10FC200009F4A4C0813009F4A3C081E01A821B82C8
:10FC30009C831D828E831F8207E010E015C01A820C
:10FC400088E08B8381E48C8386E58D8382E58E83D7
:10FC500089E48F8383E5888780E589878FE58A87B4
:10FC600082E38B870BE010E0912C48CF8A810F94C0
:10FC7000A9FC1A828B8303E010E0F6CF8D818823E4
:10FC800029F0813029F081E01A820AC08EE1FCCF90
:10FC900088E9FACF1A82E1E0F0E0309257008491CF
:10FCA0008B831C8204E010E0DFCF8B81E3E0F0E087
:10FCB000803539F48C81E2E0F0E0883011F0F0E03A
:10FCC000E0E0309257008491DFCFF0ECFA83412CD2
:10FCD000512C320102E010E0C7CF8A819B81AC81B8
:10FCE000BD81BC01CD010F94C2FEC25EDE4F6883B0
:10FCF00079838A839B83CE51D1406B017C01CC0CEC
:10FD0000DD1CEE1CFF1C1A82E5CF8A819B8198279F
:10FD1000892798278C010D5F1F4FDE011196EBBEDE
:10FD2000F6012791369112962C93129713963C93D5
:10FD30001397F2E0CF0ED11CE11CF11C0297129632
:10FD4000009769F71A8290CF892F807509F46ECFDA
:10FD5000F0E0E0E0903531F080E0983509F066CFD2
:10FD6000E3E0F0E030925700849160CF8EE15ECF07
:10FD700088E95CCFF50121905F01822D0F949DFCF5
:10FD80008224D9CE6927962769277827872778275D
:06FD90000895F894FFCF76
:04FD96000F020A004E
:040000033000F800D1
:00000001FF
