:107800000C945A3C0C94643C0C94643C0C94643C82
:107810000C94643C0C94643C0C94643C0C94643C68
:107820000C94643C0C94643C0C94643C0C94643C58
:107830000C94643C0C94643C0C94643C0C94643C48
:107840000C94643C0C94643C0C94643C0C94643C38
:107850000C94643C0C94643C0C94643C0C94643C28
:107860000C94643C0C94643C0C94643C0C94643C18
:107870000C94643C0C94643C0C94643C0C94643C08
:107880000C94643C0C94643C0C94643C0C94643CF8
:107890000C94643C0C94643C0C94643C0C94643CE8
:1078A0000C94643C0C94643C0C94643C0C94643CD8
:1078B0000C94643C11241FBECFEFD8E0DEBFCDBFD7
:1078C0000E947C3C0C94673E0C94003C8093C60064
:1078D0008091C00086FFFCCF8091C00080648093BF
:1078E000C0000895E0E0F0E085919491019619F0D0
:1078F000EE27FF2709940895CF93DF93CDB7DEB726
:10790000CD51D1400FB6F894DEBF0FBECDBF94B7B6
:10791000F894A89514BE80916000886180936000FF
:10792000109260007894292E93FD0E94723C809101
:10793000C00082608093C00080E18093C40088E131
:107940008093C100000080E291EAA7E0B0E02091BE
:10795000C00027FD07C00197A109B10909F4AAC118
:107960000000F5CF812C912C5401212CC12CD12C5D
:10797000760180E040E050E020E030E090E08730A9
:1079800009F446C06091C00067FFFCCFE091C600DB
:107990008330D9F020F4813069F038F00FC08530A1
:1079A000F9F0B8F0863061F1EACFEB3141F781E0D0
:1079B0009BE1E8CF9E272E2E82E0E4CF4E2F50E0B1
:1079C000542F44279E2783E0DDCF4E2B9E2784E053
:1079D000D9CFEE30D9F49E2785E020E030E0D2CF39
:1079E000B9016F5F7F4FA1E0B0E0AC0FBD1FA20FE8
:1079F000B31FEC939E274617570729F09B01C2CF70
:107A00009E1304C005C09A0186E0BCCF80E0BACFC7
:107A100089818130B1F41A8288E08B8381E48C8380
:107A200086E58D8382E58E8389E48F8383E588876D
:107A300080E589878FE58A8782E38B870BE010E0FA
:107A40000EC18330B9F48A8190E8980F923060F0CB
:107A5000803931F0813931F0823931F48AE005C062
:107A60008FE003C082E001C080E01A828B8303E0D4
:107A700010E0F5C0813129F0823031F0803149F4D5
:107A800003C05524539401C0512C1A8202E010E027
:107A9000E7C08B3161F41A828D81811102C08EE1C1
:107AA00027C0813011F485E923C086E121C08A31E5
:107AB00041F41A82E1E0F0E089E08093570084917C
:107AC00017C08831D1F48B81803559F48C8188308E
:107AD00021F489E0E2E0F0E007C089E0E0E0F0E0D6
:107AE00003C0E3E0F0E089E08093570084911A82BC
:107AF0008B831C8204E010E0B2C0863069F4CC8035
:107B0000DD80DC24CD24DC24CC0CDD1C0D2C000C11
:107B1000EE08FF081A82A1C0833109F048C02A810B
:107B20003B813227232732278114F0E79F06A104E7
:107B3000B10468F413E0F40110935700E89507B618
:107B400000FCFDCF80E8880E911CA11CB11CDE0159
:107B50001196B701A6011A96EC911A971B968C9173
:107B60001B9790E0982F88278E0F911D11E0FA0146
:107B70000C0110935700E89511244E5F5F4F6F4F33
:107B80007F4F2250310912962115310521F715E05A
:107B9000F60110935700E89507B600FCFDCF81E190
:107BA00080935700E8951A826A017B0156C08431A0
:107BB000F1F48A819B819827892798278C010D5F92
:107BC0001F4FDE011196F6012591349112962C93E8
:107BD000129713963C93139722E0C20ED11CE11C1E
:107BE000F11C02971296009771F71A8238C08D31F6
:107BF00051F59D81903339F48F818823B1F0813024
:107C0000B1F485E917C0892F807599F0903521F47A
:107C100089E0E0E0F0E005C0983559F4E3E0F0E0F9
:107C200089E080935700849105C08EE103C086E10E
:107C300001C080E01A821B829C831D828E831F827A
:107C400007E010E00CC0823131F480EC8A83812C93
:107C5000912C540102C080EC8A8302E010E0512C88
:107C60008BE10E94663C822D0E94663C812F0E941F
:107C7000663C802F0E94663C85E1422C48264026C7
:107C80008EE00E94663C4126CE0101963C01080F21
:107C9000191F6016710641F0F30131903F01832DE9
:107CA0000E94663C4324F5CF842D0E94663C5520FB
:107CB00009F45FCE00008091C0008D7F8093C000EA
:107CC00081E180935700E8950E94723CFFCFF894C1
:027CD000FFCFE4
:040000030000780081
:00000001FF
