:020000023000CC
:10F800000D9472FC0D949BFC0D949BFC0D949BFC41
:10F810000D949BFC0D949BFC0D949BFC0D949BFC08
:10F820000D949BFC0D949BFC0D949BFC0D949BFCF8
:10F830000D949BFC0D949BFC0D949BFC0D949BFCE8
:10F840000D949BFC0D949BFC0D949BFC0D949BFCD8
:10F850000D949BFC0D949BFC0D949BFC0D949BFCC8
:10F860000D949BFC0D949BFC0D949BFC0D949BFCB8
:10F870000D949BFC0D949BFC0D949BFC0D949BFCA8
:10F880000D949BFC0D949BFC0D949BFC0D949BFC98
:10F890000D949BFC0D949BFC0D949BFC0D949BFC88
:10F8A0000D949BFC0D949BFC0D949BFC0D949BFC78
:10F8B0000D949BFC0D949BFC0D949BFC0D949BFC68
:10F8C0000D949BFC0D949BFC0D949BFC0D949BFC58
:10F8D0000D949BFC0D949BFC0D949BFC0D949BFC48
:10F8E0000D949BFC11241FBECFEFD1E2DEBFCDBF34
:10F8F00001E00CBF12E0A0E0B2E0E6E3FDEF03E0C0
:10F900000BBF02C007900D92A430B107D9F722E0D7
:10F91000A4E0B2E001C01D92A530B207E1F70F9458
:10F9200012FD0D9499FE01E20EBF0FEF0DBF1124E1
:10F930001FBE0D9412FD0D9400FC8093C6008091B3
:10F94000C00086FFFCCF8091C00080648093C0001F
:10F9500008958059833030F4E82FF0E0E050FE4FF6
:10F960008081089580E00895CF93DF93FC0180E0CB
:10F9700070E060E050E040E090E08730A1F4DF917B
:10F98000CF910895853071F18630D1F18430A9F797
:10F990002E30C9F5922785E050E040E004C0209366
:10F9A0000402922782E02091C00027FFFCCF209123
:10F9B000C600833099F030F7813089F3823039F016
:10F9C0008111DBCF2B3179F79BE181E0ECCF622F06
:10F9D00070E0762F6627922783E0E5CF622B92278F
:10F9E00084E0E1CFDA0111964E0F5F1FEA01288310
:10F9F0009227AD016A177B07B1F6AB0186E0D3CF42
:10FA0000921709F4BCCF80E0CECF80E090E0DC011B
:10FA1000ABBFFC0187919691019619F0EE27FF2765
:10FA200009940895CDB7DEB7C152D1400FB6F8940E
:10FA3000DEBF0FBECDBF94B7F894A89514BE8091D9
:10FA40006000886180936000109260007894292E95
:10FA500093FD0F9405FD8091C00082608093C000EB
:10FA600080E18093C40088E18093C100000080E2BF
:10FA700091EAA7E0B0E02091C00027FD13C00197F4
:10FA8000A109B10969F400008091C0008D7F8093C5
:10FA9000C00081E180935700E8950F9405FDFFCFEA
:10FAA0000000E9CF412C512C3201C12CD12C760120
:10FAB000B9E03B2ECE0101960F94B4FC89818231CE
:10FAC00009F4B7C008F042C0863009F4BAC060F447
:10FAD000823009F4CCC0833009F484C0813009F449
:10FAE0006AC020EC2A83AAC0803109F4C0C08131E9
:10FAF000C1F71A8202E010E0992493948BE10F94ED
:10FB00009DFC809104020F949DFC80900402812F43
:10FB10000F949DFC8126802F0F949DFC80268EE003
:10FB20000F949DFC85E1882681E090E08C0F9D1F5D
:10FB3000080F191F5C010A151B0509F0EBC0882D81
:10FB40000F949DFC992009F4B5CF9DCF883109F41D
:10FB500060C020F5833109F48CC0843111F68A81AC
:10FB60009B819827892798278C010D5F1F4FDE0105
:10FB70001196EBBEF6012791369112962C931297AF
:10FB800013963C931397F2E0CF0ED11CE11CF11CAD
:10FB900002971296009769F71A8222C08A3171F192
:10FBA0008B3109F09ECF8D81882321F1813021F1A5
:10FBB00081E01A8229C01A8288E08B8381E48C83D9
:10FBC00086E58D8382E58E8389E48F8383E588874C
:10FBD00080E589878FE58A8782E38B870BE010E0D9
:10FBE000912C8CCF8A810F94A9FC1A828B8303E01D
:10FBF00010E0F6CF8EE1DDCF88E9DBCF1A82E1E0BD
:10FC0000F0E03092570084918B831C8204E010E076
:10FC1000E7CF8B81E3E0F0E0803539F48C81E2E0DE
:10FC2000F0E0883011F0F0E0E0E03092570084918D
:10FC3000C0CFF0ECFA83412C512C320102E010E0ED
:10FC4000CFCF8A819B81AC81BD81BC01CD010F9456
:10FC500092FEC25EDE4F688379838A839B83CE5196
:10FC6000D1406B017C01CC0CDD1CEE1CFF1C1A8208
:10FC7000E5CF8A819B819827892798274114A0EF97
:10FC80005A06A3E06A06710470F423E0F201609260
:10FC90005B0020935700E89507B600FCFDCFBFEF4F
:10FCA0005B1A6B0A7B0ADE011196B701A60111E00F
:10FCB0001A96EC911A971B962C911B9730E0322FD5
:10FCC00022272E0F311D0901FA0160935B0010936A
:10FCD0005700E89511244E5F5F4F6F4F7F4F02979B
:10FCE0001296009729F785E0F601E0925B00809379
:10FCF0005700E89587B7E82FE1709E2E80FDFACF78
:10FD000081E180935700E8951A826A017B0102E045
:10FD100010E0F4CEF50121905F01822D0F949DFC3F
:10FD2000822409CF6927962769277827872778278C
:06FD30000895F894FFCFD6
:04FD36000F020A00AE
:040000033000F800D1
:00000001FF
