:107800000C945A3C0C946C3C0C946C3C0C946C3C6A
:107810000C946C3C0C946C3C0C946C3C0C946C3C48
:107820000C946C3C0C946C3C0C946C3C0C946C3C38
:107830000C946C3C0C946C3C0C946C3C0C946C3C28
:107840000C946C3C0C946C3C0C946C3C0C946C3C18
:107850000C946C3C0C946C3C0C946C3C0C946C3C08
:107860000C946C3C0C946C3C0C946C3C0C946C3CF8
:107870000C946C3C0C946C3C0C946C3C0C946C3CE8
:107880000C946C3C0C946C3C0C946C3C0C946C3CD8
:107890000C946C3C0C946C3C0C946C3C0C946C3CC8
:1078A0000C946C3C0C946C3C0C946C3C0C946C3CB8
:1078B0000C946C3C11241FBECFEFD8E0DEBFCDBFCF
:1078C0000E94E53C0C94593E08E00EBF0FEF0DBF3F
:1078D00011241FBE0C94E53C0C94003C8093C60020
:1078E0008091C00086FFFCCF8091C00080648093AF
:1078F000C000089590E8980F923060F0803931F020
:10790000813931F0823931F48AE008958FE00895A9
:1079100082E0089580E00895CF93DF93EC0190E03A
:1079200040E050E0E0E0F0E020E0973009F440C0B3
:107930008091C00087FFFCCF3091C6009330D9F012
:1079400020F4913069F038F00FC09530F9F0B8F0BC
:10795000963041F1EACF3B3141F791E02BE1E8CF9E
:107960003883232792E0E4CF432F50E0542F44275D
:10797000232793E0DDCF432B232794E0D9CF3E305C
:1079800099F4232795E0E0E0F0E0D2CFDF011196F3
:10799000E60FF71F308323274A175B0739F4FA01F4
:1079A00096E0C6CF231721F090E0C2CFFD01C0CFF3
:1079B000DF91CF910895E0E0F0E0859194910196F8
:1079C00019F0EE27FF2709940895CF93DF93CDB7E1
:1079D000DEB7CE51D1400FB6F894DEBF0FBECDBF9B
:1079E000C25EDE4F1882CE51D14094B7F894A8956C
:1079F00014BE8091600088618093600010926000E6
:107A00007894292E93FD0E94DB3C8091C000826017
:107A10008093C00080E18093C40088E18093C1001E
:107A2000000080E291EAA7E0B0E02091C00027FDCD
:107A300018C00197A109B10939F00000F6CF882DCF
:107A40000E946E3C9920A9F000008091C0008D7FBB
:107A50008093C00081E180935700E8950E94DB3C51
:107A600027C1C12CD12C7601412C512C3201B0EC14
:107A70003B2EBE016F5F7F4FCE01825E9E4F0E9404
:107A80008C3C89818130B1F41A8288E08B8381E457
:107A90008C8386E58D8382E58E8389E48F8383E5FD
:107AA000888780E589878FE58A8782E38B870BE06B
:107AB00010E0CFC0833041F48A810E947A3C1A8260
:107AC0008B8303E010E0C5C0813129F0823031F0B2
:107AD000803149F403C09924939401C0912C1A82F7
:107AE00002E010E0B7C08B3161F41A828D81811100
:107AF00002C08EE127C0813011F485E923C086E100
:107B000021C08A3141F41A8289E0E1E0F0E08093FB
:107B10005700849117C08831D1F48B81803559F496
:107B20008C81883021F489E0E2E0F0E007C089E050
:107B3000E0E0F0E003C089E0E3E0F0E0809357008C
:107B400084911A828B831C8204E010E082C086300C
:107B500069F4CC80DD80DC24CD24DC24CC0CDD1C5D
:107B60000D2C000CEE08FF081A8271C0833109F059
:107B700048C02A813B813227232732274114F0E76E
:107B80005F066104710468F413E0F201109357007A
:107B9000E89507B600FCFDCF80E8480E511C611C3B
:107BA000711CDE011196B701A6011A96EC911A9785
:107BB0001B968C911B9790E0982F88278E0F911D14
:107BC00011E0FA010C0110935700E89511244E5F63
:107BD0005F4F6F4F7F4F22503109129621153105AB
:107BE00021F715E0F60110935700E89507B600FC61
:107BF000FDCF21E120935700E8951A826A017B01AD
:107C000026C08431F1F48A819B819827892798279F
:107C10008C010D5F1F4FDE011196F6012591349105
:107C200012962C93129713963C931397E2E0CE0E84
:107C3000D11CE11CF11C02971296009771F71A8271
:107C400008C03A82823119F4412C512C320102E0F1
:107C500010E0912C8BE10E946E3CC25EDE4F888169
:107C6000CE51D1400E946E3CC25EDE4FB880CE51F4
:107C7000D140812F0E946E3C802F0E946E3C85E196
:107C80008B2C882680268EE00E946E3C8126CE01B9
:107C900001965C01080F191FA016B10609F4CFCE9A
:107CA000F50121905F01822D0E946E3C8224F4CF69
:067CB000FFCFF894FFCFA6
:040000030000780081
:00000001FF
